{
  "_format": "hh-sol-artifact-1",
  "contractName": "HelloWorld",
  "sourceName": "contracts/HelloWorld.sol",
  "abi": [
    {
      "anonymous": false,
      "inputs": [
        {
          "indexed": true,
          "internalType": "address",
          "name": "sender",
          "type": "address"
        },
        {
          "indexed": true,
          "internalType": "address",
          "name": "recipient",
          "type": "address"
        },
        {
          "indexed": false,
          "internalType": "uint256",
          "name": "timestamp",
          "type": "uint256"
        },
        {
          "indexed": false,
          "internalType": "string",
          "name": "content",
          "type": "string"
        }
      ],
      "name": "MessageSent",
      "type": "event"
    },
    {
      "inputs": [
        {
          "internalType": "address",
          "name": "_recipient",
          "type": "address"
        }
      ],
      "name": "getReceivedMessages",
      "outputs": [
        {
          "components": [
            {
              "internalType": "address",
              "name": "sender",
              "type": "address"
            },
            {
              "internalType": "address",
              "name": "recipient",
              "type": "address"
            },
            {
              "internalType": "uint256",
              "name": "timestamp",
              "type": "uint256"
            },
            {
              "internalType": "string",
              "name": "content",
              "type": "string"
            }
          ],
          "internalType": "struct HelloWorld.Message[]",
          "name": "",
          "type": "tuple[]"
        }
      ],
      "stateMutability": "view",
      "type": "function"
    },
    {
      "inputs": [
        {
          "internalType": "address",
          "name": "_sender",
          "type": "address"
        }
      ],
      "name": "getSentMessages",
      "outputs": [
        {
          "components": [
            {
              "internalType": "address",
              "name": "sender",
              "type": "address"
            },
            {
              "internalType": "address",
              "name": "recipient",
              "type": "address"
            },
            {
              "internalType": "uint256",
              "name": "timestamp",
              "type": "uint256"
            },
            {
              "internalType": "string",
              "name": "content",
              "type": "string"
            }
          ],
          "internalType": "struct HelloWorld.Message[]",
          "name": "",
          "type": "tuple[]"
        }
      ],
      "stateMutability": "view",
      "type": "function"
    },
    {
      "inputs": [
        {
          "internalType": "address",
          "name": "",
          "type": "address"
        },
        {
          "internalType": "uint256",
          "name": "",
          "type": "uint256"
        }
      ],
      "name": "receivedMessages",
      "outputs": [
        {
          "internalType": "address",
          "name": "sender",
          "type": "address"
        },
        {
          "internalType": "address",
          "name": "recipient",
          "type": "address"
        },
        {
          "internalType": "uint256",
          "name": "timestamp",
          "type": "uint256"
        },
        {
          "internalType": "string",
          "name": "content",
          "type": "string"
        }
      ],
      "stateMutability": "view",
      "type": "function"
    },
    {
      "inputs": [
        {
          "internalType": "address",
          "name": "_recipient",
          "type": "address"
        },
        {
          "internalType": "string",
          "name": "_content",
          "type": "string"
        }
      ],
      "name": "sendMessage",
      "outputs": [],
      "stateMutability": "nonpayable",
      "type": "function"
    },
    {
      "inputs": [
        {
          "internalType": "address",
          "name": "",
          "type": "address"
        },
        {
          "internalType": "uint256",
          "name": "",
          "type": "uint256"
        }
      ],
      "name": "sentMessages",
      "outputs": [
        {
          "internalType": "address",
          "name": "sender",
          "type": "address"
        },
        {
          "internalType": "address",
          "name": "recipient",
          "type": "address"
        },
        {
          "internalType": "uint256",
          "name": "timestamp",
          "type": "uint256"
        },
        {
          "internalType": "string",
          "name": "content",
          "type": "string"
        }
      ],
      "stateMutability": "view",
      "type": "function"
    }
  ],
  "bytecode": "0x608060405234801561001057600080fd5b50611225806100206000396000f3fe608060405234801561001057600080fd5b50600436106100575760003560e01c80631a35e5c01461005c57806350b4d1fc1461008f5780638602def6146100bf578063d93d3884146100ef578063de6f24bb14610122575b600080fd5b61007660048036038101906100719190610d0f565b61013e565b6040516100869493929190610f8b565b60405180910390f35b6100a960048036038101906100a49190610c92565b610260565b6040516100b69190610fd7565b60405180910390f35b6100d960048036038101906100d49190610c92565b610456565b6040516100e69190610fd7565b60405180910390f35b61010960048036038101906101049190610d0f565b61064b565b6040516101199493929190610f8b565b60405180910390f35b61013c60048036038101906101379190610cbb565b61076d565b005b6000602052816000526040600020818154811061015757fe5b9060005260206000209060040201600091509150508060000160009054906101000a900473ffffffffffffffffffffffffffffffffffffffff16908060010160009054906101000a900473ffffffffffffffffffffffffffffffffffffffff1690806002015490806003018054600181600116156101000203166002900480601f0160208091040260200160405190810160405280929190818152602001828054600181600116156101000203166002900480156102565780601f1061022b57610100808354040283529160200191610256565b820191906000526020600020905b81548152906001019060200180831161023957829003601f168201915b5050505050905084565b6060600160008373ffffffffffffffffffffffffffffffffffffffff1673ffffffffffffffffffffffffffffffffffffffff168152602001908152602001600020805480602002602001604051908101604052809291908181526020016000905b8282101561044b57838290600052602060002090600402016040518060800160405290816000820160009054906101000a900473ffffffffffffffffffffffffffffffffffffffff1673ffffffffffffffffffffffffffffffffffffffff1673ffffffffffffffffffffffffffffffffffffffff1681526020016001820160009054906101000a900473ffffffffffffffffffffffffffffffffffffffff1673ffffffffffffffffffffffffffffffffffffffff1673ffffffffffffffffffffffffffffffffffffffff16815260200160028201548152602001600382018054600181600116156101000203166002900480601f0160208091040260200160405190810160405280929190818152602001828054600181600116156101000203166002900480156104335780601f1061040857610100808354040283529160200191610433565b820191906000526020600020905b81548152906001019060200180831161041657829003601f168201915b505050505081525050815260200190600101906102c1565b505050509050919050565b60606000808373ffffffffffffffffffffffffffffffffffffffff1673ffffffffffffffffffffffffffffffffffffffff168152602001908152602001600020805480602002602001604051908101604052809291908181526020016000905b8282101561064057838290600052602060002090600402016040518060800160405290816000820160009054906101000a900473ffffffffffffffffffffffffffffffffffffffff1673ffffffffffffffffffffffffffffffffffffffff1673ffffffffffffffffffffffffffffffffffffffff1681526020016001820160009054906101000a900473ffffffffffffffffffffffffffffffffffffffff1673ffffffffffffffffffffffffffffffffffffffff1673ffffffffffffffffffffffffffffffffffffffff16815260200160028201548152602001600382018054600181600116156101000203166002900480601f0160208091040260200160405190810160405280929190818152602001828054600181600116156101000203166002900480156106285780601f106105fd57610100808354040283529160200191610628565b820191906000526020600020905b81548152906001019060200180831161060b57829003601f168201915b505050505081525050815260200190600101906104b6565b505050509050919050565b6001602052816000526040600020818154811061066457fe5b9060005260206000209060040201600091509150508060000160009054906101000a900473ffffffffffffffffffffffffffffffffffffffff16908060010160009054906101000a900473ffffffffffffffffffffffffffffffffffffffff1690806002015490806003018054600181600116156101000203166002900480601f0160208091040260200160405190810160405280929190818152602001828054600181600116156101000203166002900480156107635780601f1061073857610100808354040283529160200191610763565b820191906000526020600020905b81548152906001019060200180831161074657829003601f168201915b5050505050905084565b600073ffffffffffffffffffffffffffffffffffffffff168273ffffffffffffffffffffffffffffffffffffffff1614156107dd576040517f08c379a00000000000000000000000000000000000000000000000000000000081526004016107d490610ff9565b60405180910390fd5b6000815111610821576040517f08c379a000000000000000000000000000000000000000000000000000000000815260040161081890611019565b60405180910390fd5b610829610b23565b60405180608001604052803373ffffffffffffffffffffffffffffffffffffffff1681526020018473ffffffffffffffffffffffffffffffffffffffff1681526020014281526020018381525090506000803373ffffffffffffffffffffffffffffffffffffffff1673ffffffffffffffffffffffffffffffffffffffff16815260200190815260200160002081908060018154018082558091505060019003906000526020600020906004020160009091909190915060008201518160000160006101000a81548173ffffffffffffffffffffffffffffffffffffffff021916908373ffffffffffffffffffffffffffffffffffffffff16021790555060208201518160010160006101000a81548173ffffffffffffffffffffffffffffffffffffffff021916908373ffffffffffffffffffffffffffffffffffffffff160217905550604082015181600201556060820151816003019080519060200190610994929190610b77565b505050600160008473ffffffffffffffffffffffffffffffffffffffff1673ffffffffffffffffffffffffffffffffffffffff16815260200190815260200160002081908060018154018082558091505060019003906000526020600020906004020160009091909190915060008201518160000160006101000a81548173ffffffffffffffffffffffffffffffffffffffff021916908373ffffffffffffffffffffffffffffffffffffffff16021790555060208201518160010160006101000a81548173ffffffffffffffffffffffffffffffffffffffff021916908373ffffffffffffffffffffffffffffffffffffffff160217905550604082015181600201556060820151816003019080519060200190610ab4929190610b77565b5050508273ffffffffffffffffffffffffffffffffffffffff163373ffffffffffffffffffffffffffffffffffffffff167f0b6aa398652c861e442761200431647f8622c16488a180e5354301cdcfb337154285604051610b16929190611039565b60405180910390a3505050565b6040518060800160405280600073ffffffffffffffffffffffffffffffffffffffff168152602001600073ffffffffffffffffffffffffffffffffffffffff16815260200160008152602001606081525090565b828054600181600116156101000203166002900490600052602060002090601f016020900481019282601f10610bb857805160ff1916838001178555610be6565b82800160010185558215610be6579182015b82811115610be5578251825591602001919060010190610bca565b5b509050610bf39190610bf7565b5090565b5b80821115610c10576000816000905550600101610bf8565b5090565b600081359050610c23816111c1565b92915050565b600082601f830112610c3a57600080fd5b8135610c4d610c488261109a565b611069565b91508082526020830160208301858383011115610c6957600080fd5b610c7483828461116c565b50505092915050565b600081359050610c8c816111d8565b92915050565b600060208284031215610ca457600080fd5b6000610cb284828501610c14565b91505092915050565b60008060408385031215610cce57600080fd5b6000610cdc85828601610c14565b925050602083013567ffffffffffffffff811115610cf957600080fd5b610d0585828601610c29565b9150509250929050565b60008060408385031215610d2257600080fd5b6000610d3085828601610c14565b9250506020610d4185828601610c7d565b9150509250929050565b6000610d578383610f0a565b905092915050565b610d6881611130565b82525050565b610d7781611130565b82525050565b6000610d88826110da565b610d9281856110fd565b935083602082028501610da4856110ca565b8060005b85811015610de05784840389528151610dc18582610d4b565b9450610dcc836110f0565b925060208a01995050600181019050610da8565b50829750879550505050505092915050565b6000610dfd826110e5565b610e07818561110e565b9350610e1781856020860161117b565b610e20816111b0565b840191505092915050565b6000610e36826110e5565b610e40818561111f565b9350610e5081856020860161117b565b610e59816111b0565b840191505092915050565b6000610e7160218361111f565b91507f526563697069656e7420616464726573732063616e6e6f74206265207a65726f60008301527f2e000000000000000000000000000000000000000000000000000000000000006020830152604082019050919050565b6000610ed760208361111f565b91507f4d65737361676520636f6e74656e742063616e6e6f7420626520656d7074792e6000830152602082019050919050565b6000608083016000830151610f226000860182610d5f565b506020830151610f356020860182610d5f565b506040830151610f486040860182610f6d565b5060608301518482036060860152610f608282610df2565b9150508091505092915050565b610f7681611162565b82525050565b610f8581611162565b82525050565b6000608082019050610fa06000830187610d6e565b610fad6020830186610d6e565b610fba6040830185610f7c565b8181036060830152610fcc8184610e2b565b905095945050505050565b60006020820190508181036000830152610ff18184610d7d565b905092915050565b6000602082019050818103600083015261101281610e64565b9050919050565b6000602082019050818103600083015261103281610eca565b9050919050565b600060408201905061104e6000830185610f7c565b81810360208301526110608184610e2b565b90509392505050565b6000604051905081810181811067ffffffffffffffff821117156110905761108f6111ae565b5b8060405250919050565b600067ffffffffffffffff8211156110b5576110b46111ae565b5b601f19601f8301169050602081019050919050565b6000819050602082019050919050565b600081519050919050565b600081519050919050565b6000602082019050919050565b600082825260208201905092915050565b600082825260208201905092915050565b600082825260208201905092915050565b600061113b82611142565b9050919050565b600073ffffffffffffffffffffffffffffffffffffffff82169050919050565b6000819050919050565b82818337600083830152505050565b60005b8381101561119957808201518184015260208101905061117e565b838111156111a8576000848401525b50505050565bfe5b6000601f19601f8301169050919050565b6111ca81611130565b81146111d557600080fd5b50565b6111e181611162565b81146111ec57600080fd5b5056fea26469706673582212201c34b2d4eae71873adec6c74ca1e06d9ead6db01c3d11bf5300b47e3b675be8164736f6c63430007030033",
  "linkReferences": {},
  "deployedLinkReferences": {}
}