{
  "_format": "hh-sol-artifact-1",
  "contractName": "HelloWorld",
  "sourceName": "contracts/HelloWorld.sol",
  "abi": [
    {
      "anonymous": false,
      "inputs": [
        {
          "indexed": true,
          "internalType": "address",
          "name": "sender",
          "type": "address"
        },
        {
          "indexed": true,
          "internalType": "address",
          "name": "recipient",
          "type": "address"
        },
        {
          "indexed": false,
          "internalType": "uint256",
          "name": "timestamp",
          "type": "uint256"
        },
        {
          "indexed": false,
          "internalType": "string",
          "name": "content",
          "type": "string"
        }
      ],
      "name": "MessageSent",
      "type": "event"
    },
    {
      "inputs": [
        {
          "internalType": "address",
          "name": "_recipient",
          "type": "address"
        }
      ],
      "name": "countReceivedMessages",
      "outputs": [
        {
          "internalType": "uint256",
          "name": "",
          "type": "uint256"
        }
      ],
      "stateMutability": "view",
      "type": "function"
    },
    {
      "inputs": [
        {
          "internalType": "address",
          "name": "_recipient",
          "type": "address"
        }
      ],
      "name": "getReceivedMessages",
      "outputs": [
        {
          "components": [
            {
              "internalType": "address",
              "name": "sender",
              "type": "address"
            },
            {
              "internalType": "address",
              "name": "recipient",
              "type": "address"
            },
            {
              "internalType": "uint256",
              "name": "timestamp",
              "type": "uint256"
            },
            {
              "internalType": "string",
              "name": "content",
              "type": "string"
            }
          ],
          "internalType": "struct HelloWorld.Message[]",
          "name": "",
          "type": "tuple[]"
        }
      ],
      "stateMutability": "view",
      "type": "function"
    },
    {
      "inputs": [
        {
          "internalType": "address",
          "name": "_sender",
          "type": "address"
        }
      ],
      "name": "getSentMessages",
      "outputs": [
        {
          "components": [
            {
              "internalType": "address",
              "name": "sender",
              "type": "address"
            },
            {
              "internalType": "address",
              "name": "recipient",
              "type": "address"
            },
            {
              "internalType": "uint256",
              "name": "timestamp",
              "type": "uint256"
            },
            {
              "internalType": "string",
              "name": "content",
              "type": "string"
            }
          ],
          "internalType": "struct HelloWorld.Message[]",
          "name": "",
          "type": "tuple[]"
        }
      ],
      "stateMutability": "view",
      "type": "function"
    },
    {
      "inputs": [
        {
          "internalType": "address",
          "name": "",
          "type": "address"
        },
        {
          "internalType": "uint256",
          "name": "",
          "type": "uint256"
        }
      ],
      "name": "receivedMessages",
      "outputs": [
        {
          "internalType": "address",
          "name": "sender",
          "type": "address"
        },
        {
          "internalType": "address",
          "name": "recipient",
          "type": "address"
        },
        {
          "internalType": "uint256",
          "name": "timestamp",
          "type": "uint256"
        },
        {
          "internalType": "string",
          "name": "content",
          "type": "string"
        }
      ],
      "stateMutability": "view",
      "type": "function"
    },
    {
      "inputs": [
        {
          "internalType": "address",
          "name": "_recipient",
          "type": "address"
        },
        {
          "internalType": "string",
          "name": "_content",
          "type": "string"
        }
      ],
      "name": "sendMessage",
      "outputs": [],
      "stateMutability": "nonpayable",
      "type": "function"
    },
    {
      "inputs": [
        {
          "internalType": "address",
          "name": "",
          "type": "address"
        },
        {
          "internalType": "uint256",
          "name": "",
          "type": "uint256"
        }
      ],
      "name": "sentMessages",
      "outputs": [
        {
          "internalType": "address",
          "name": "sender",
          "type": "address"
        },
        {
          "internalType": "address",
          "name": "recipient",
          "type": "address"
        },
        {
          "internalType": "uint256",
          "name": "timestamp",
          "type": "uint256"
        },
        {
          "internalType": "string",
          "name": "content",
          "type": "string"
        }
      ],
      "stateMutability": "view",
      "type": "function"
    }
  ],
  "bytecode": "0x608060405234801561001057600080fd5b506112c7806100206000396000f3fe608060405234801561001057600080fd5b50600436106100625760003560e01c80631a35e5c01461006757806332f0314e1461009a57806350b4d1fc146100ca5780638602def6146100fa578063d93d38841461012a578063de6f24bb1461015d575b600080fd5b610081600480360381019061007c9190610d96565b610179565b6040516100919493929190611012565b60405180910390f35b6100b460048036038101906100af9190610d19565b61029b565b6040516100c191906110c0565b60405180910390f35b6100e460048036038101906100df9190610d19565b6102e7565b6040516100f1919061105e565b60405180910390f35b610114600480360381019061010f9190610d19565b6104dd565b604051610121919061105e565b60405180910390f35b610144600480360381019061013f9190610d96565b6106d2565b6040516101549493929190611012565b60405180910390f35b61017760048036038101906101729190610d42565b6107f4565b005b6000602052816000526040600020818154811061019257fe5b9060005260206000209060040201600091509150508060000160009054906101000a900473ffffffffffffffffffffffffffffffffffffffff16908060010160009054906101000a900473ffffffffffffffffffffffffffffffffffffffff1690806002015490806003018054600181600116156101000203166002900480601f0160208091040260200160405190810160405280929190818152602001828054600181600116156101000203166002900480156102915780601f1061026657610100808354040283529160200191610291565b820191906000526020600020905b81548152906001019060200180831161027457829003601f168201915b5050505050905084565b6000600160008373ffffffffffffffffffffffffffffffffffffffff1673ffffffffffffffffffffffffffffffffffffffff168152602001908152602001600020805490509050919050565b6060600160008373ffffffffffffffffffffffffffffffffffffffff1673ffffffffffffffffffffffffffffffffffffffff168152602001908152602001600020805480602002602001604051908101604052809291908181526020016000905b828210156104d257838290600052602060002090600402016040518060800160405290816000820160009054906101000a900473ffffffffffffffffffffffffffffffffffffffff1673ffffffffffffffffffffffffffffffffffffffff1673ffffffffffffffffffffffffffffffffffffffff1681526020016001820160009054906101000a900473ffffffffffffffffffffffffffffffffffffffff1673ffffffffffffffffffffffffffffffffffffffff1673ffffffffffffffffffffffffffffffffffffffff16815260200160028201548152602001600382018054600181600116156101000203166002900480601f0160208091040260200160405190810160405280929190818152602001828054600181600116156101000203166002900480156104ba5780601f1061048f576101008083540402835291602001916104ba565b820191906000526020600020905b81548152906001019060200180831161049d57829003601f168201915b50505050508152505081526020019060010190610348565b505050509050919050565b60606000808373ffffffffffffffffffffffffffffffffffffffff1673ffffffffffffffffffffffffffffffffffffffff168152602001908152602001600020805480602002602001604051908101604052809291908181526020016000905b828210156106c757838290600052602060002090600402016040518060800160405290816000820160009054906101000a900473ffffffffffffffffffffffffffffffffffffffff1673ffffffffffffffffffffffffffffffffffffffff1673ffffffffffffffffffffffffffffffffffffffff1681526020016001820160009054906101000a900473ffffffffffffffffffffffffffffffffffffffff1673ffffffffffffffffffffffffffffffffffffffff1673ffffffffffffffffffffffffffffffffffffffff16815260200160028201548152602001600382018054600181600116156101000203166002900480601f0160208091040260200160405190810160405280929190818152602001828054600181600116156101000203166002900480156106af5780601f10610684576101008083540402835291602001916106af565b820191906000526020600020905b81548152906001019060200180831161069257829003601f168201915b5050505050815250508152602001906001019061053d565b505050509050919050565b600160205281600052604060002081815481106106eb57fe5b9060005260206000209060040201600091509150508060000160009054906101000a900473ffffffffffffffffffffffffffffffffffffffff16908060010160009054906101000a900473ffffffffffffffffffffffffffffffffffffffff1690806002015490806003018054600181600116156101000203166002900480601f0160208091040260200160405190810160405280929190818152602001828054600181600116156101000203166002900480156107ea5780601f106107bf576101008083540402835291602001916107ea565b820191906000526020600020905b8154815290600101906020018083116107cd57829003601f168201915b5050505050905084565b600073ffffffffffffffffffffffffffffffffffffffff168273ffffffffffffffffffffffffffffffffffffffff161415610864576040517f08c379a000000000000000000000000000000000000000000000000000000000815260040161085b90611080565b60405180910390fd5b60008151116108a8576040517f08c379a000000000000000000000000000000000000000000000000000000000815260040161089f906110a0565b60405180910390fd5b6108b0610baa565b60405180608001604052803373ffffffffffffffffffffffffffffffffffffffff1681526020018473ffffffffffffffffffffffffffffffffffffffff1681526020014281526020018381525090506000803373ffffffffffffffffffffffffffffffffffffffff1673ffffffffffffffffffffffffffffffffffffffff16815260200190815260200160002081908060018154018082558091505060019003906000526020600020906004020160009091909190915060008201518160000160006101000a81548173ffffffffffffffffffffffffffffffffffffffff021916908373ffffffffffffffffffffffffffffffffffffffff16021790555060208201518160010160006101000a81548173ffffffffffffffffffffffffffffffffffffffff021916908373ffffffffffffffffffffffffffffffffffffffff160217905550604082015181600201556060820151816003019080519060200190610a1b929190610bfe565b505050600160008473ffffffffffffffffffffffffffffffffffffffff1673ffffffffffffffffffffffffffffffffffffffff16815260200190815260200160002081908060018154018082558091505060019003906000526020600020906004020160009091909190915060008201518160000160006101000a81548173ffffffffffffffffffffffffffffffffffffffff021916908373ffffffffffffffffffffffffffffffffffffffff16021790555060208201518160010160006101000a81548173ffffffffffffffffffffffffffffffffffffffff021916908373ffffffffffffffffffffffffffffffffffffffff160217905550604082015181600201556060820151816003019080519060200190610b3b929190610bfe565b5050508273ffffffffffffffffffffffffffffffffffffffff163373ffffffffffffffffffffffffffffffffffffffff167f0b6aa398652c861e442761200431647f8622c16488a180e5354301cdcfb337154285604051610b9d9291906110db565b60405180910390a3505050565b6040518060800160405280600073ffffffffffffffffffffffffffffffffffffffff168152602001600073ffffffffffffffffffffffffffffffffffffffff16815260200160008152602001606081525090565b828054600181600116156101000203166002900490600052602060002090601f016020900481019282601f10610c3f57805160ff1916838001178555610c6d565b82800160010185558215610c6d579182015b82811115610c6c578251825591602001919060010190610c51565b5b509050610c7a9190610c7e565b5090565b5b80821115610c97576000816000905550600101610c7f565b5090565b600081359050610caa81611263565b92915050565b600082601f830112610cc157600080fd5b8135610cd4610ccf8261113c565b61110b565b91508082526020830160208301858383011115610cf057600080fd5b610cfb83828461120e565b50505092915050565b600081359050610d138161127a565b92915050565b600060208284031215610d2b57600080fd5b6000610d3984828501610c9b565b91505092915050565b60008060408385031215610d5557600080fd5b6000610d6385828601610c9b565b925050602083013567ffffffffffffffff811115610d8057600080fd5b610d8c85828601610cb0565b9150509250929050565b60008060408385031215610da957600080fd5b6000610db785828601610c9b565b9250506020610dc885828601610d04565b9150509250929050565b6000610dde8383610f91565b905092915050565b610def816111d2565b82525050565b610dfe816111d2565b82525050565b6000610e0f8261117c565b610e19818561119f565b935083602082028501610e2b8561116c565b8060005b85811015610e675784840389528151610e488582610dd2565b9450610e5383611192565b925060208a01995050600181019050610e2f565b50829750879550505050505092915050565b6000610e8482611187565b610e8e81856111b0565b9350610e9e81856020860161121d565b610ea781611252565b840191505092915050565b6000610ebd82611187565b610ec781856111c1565b9350610ed781856020860161121d565b610ee081611252565b840191505092915050565b6000610ef86021836111c1565b91507f526563697069656e7420616464726573732063616e6e6f74206265207a65726f60008301527f2e000000000000000000000000000000000000000000000000000000000000006020830152604082019050919050565b6000610f5e6020836111c1565b91507f4d65737361676520636f6e74656e742063616e6e6f7420626520656d7074792e6000830152602082019050919050565b6000608083016000830151610fa96000860182610de6565b506020830151610fbc6020860182610de6565b506040830151610fcf6040860182610ff4565b5060608301518482036060860152610fe78282610e79565b9150508091505092915050565b610ffd81611204565b82525050565b61100c81611204565b82525050565b60006080820190506110276000830187610df5565b6110346020830186610df5565b6110416040830185611003565b81810360608301526110538184610eb2565b905095945050505050565b600060208201905081810360008301526110788184610e04565b905092915050565b6000602082019050818103600083015261109981610eeb565b9050919050565b600060208201905081810360008301526110b981610f51565b9050919050565b60006020820190506110d56000830184611003565b92915050565b60006040820190506110f06000830185611003565b81810360208301526111028184610eb2565b90509392505050565b6000604051905081810181811067ffffffffffffffff8211171561113257611131611250565b5b8060405250919050565b600067ffffffffffffffff82111561115757611156611250565b5b601f19601f8301169050602081019050919050565b6000819050602082019050919050565b600081519050919050565b600081519050919050565b6000602082019050919050565b600082825260208201905092915050565b600082825260208201905092915050565b600082825260208201905092915050565b60006111dd826111e4565b9050919050565b600073ffffffffffffffffffffffffffffffffffffffff82169050919050565b6000819050919050565b82818337600083830152505050565b60005b8381101561123b578082015181840152602081019050611220565b8381111561124a576000848401525b50505050565bfe5b6000601f19601f8301169050919050565b61126c816111d2565b811461127757600080fd5b50565b61128381611204565b811461128e57600080fd5b5056fea264697066735822122058b74b2b0077a0c88a12622fd7a16f6f1f7311ef610814921263f393ad7dfbb364736f6c63430007030033",
  "linkReferences": {},
  "deployedLinkReferences": {}
}